:100000000C94657A0C94927A0C94927A0C94927A6D
:100010000C94927A0C94927A0C94927A0C94927A30
:100020000C94927A0C94927A0C94927A0C94927A20
:100030000C94927A0D941E6A0C94927A0C94927A93
:100040000C94927A0C942FE40C94927A0C94927AF9
:100050000C94927A0C94927A0C9426E30D94916607
:100060000C94927A0C9477E10C94A1E10C94927A1E
:100070000C94927A0C94927A0C94927A0C94927AD0
:100080000C94927A0C94927A0C94927A0C94927AC0
:100090000C94927A0C94927A0C94927A0C94927AB0
:1000A0000C94927A0C94927A0C94927A0C94927AA0
:1000B0000C94927A0C94927A0C94927A0C94927A90
:1000C0000C94927A0C94927A0C94927A0C94927A80
:1000D0000C94927A0C94927A0C94927A0C94927A70
:1000E0000C94927A64DC7CDC7CDC7CDC7CDC7CDC6C
:1000F0007CDC7CDC7CDC7CDC7CDC7CDC7CDC7CDC40
:100100007CDC7CDC7CDC7CDC7CDC7CDC7CDC7CDC2F
:100110007CDC26DC31DC10DC05DCAFDBBADB1DDB94
:100120001BDCE4DBEFDB3CDC47DC30DB09DB52DCF7
:10013000D9DB7CDCFADBCEDBC5DB7CDC7CDC7CDC8D
:100140008EDB99DBA4DB7CDC7CDC7CDC7CDC7CDC9B
:100150007CDC26DC31DC10DC05DCAFDBBADB1DDB54
:100160001BDCE4DBEFDB3CDC47DC30DB09DB52DCB7
:10017000D9DB7CDCFADBCEDBC5DB7CDC7CDC7CDC4D
:100180008EDB99DBA4DB084AD73B3BCE016E84BCF7
:10019000BFFDC12F3D6C74319ABD56833DDA3D00E1
:1001A000C77F11BED9E4BB4C3E916BAAAABE00002A
:1001B00000803F05A84CCDB2D44EB93836A9020C08
:1001C00050B9918688083CA6AAAA2ABE00000080E1
:1001D0003F2063203D20002062203D2000706C61A4
:1001E0006E653A2061203D20007A2D70726F626545
:1001F00020646964206E6F7420756E74726967671D
:10020000657220616674657220676F696E6720622F
:1002100061636B20746F20737461727420706F73EC
:100220006974696F6E2E007A2D70726F626520643A
:100230006964206E6F7420756E7472696767657289
:10024000206F6E2072657065746974697665206DC3
:100250006561737572656D656E74202D206D6179B1
:10026000626520796F75206E65656420746F206902
:100270006E6372656173652064697374616E636532
:1002800021007A2D70726F626520747269676765EC
:10029000726564206265666F726520737461727442
:1002A000696E672070726F62696E672E0047333225
:1002B00020002061745A3A0043757272656E745A58
:1002C0003A0050726F62696E6720686164207265DF
:1002D0007475726E6564206572726F7273202D2062
:1002E0006175746F6C6576656C696E672063616EAD
:1002F00063656C65642E00000136372603023C3DC1
:10030000380E0F2E303E12130DFF0A081A1C180D5E
:100310000E3554657374696E6720666174616C2074
:100320006572726F720029203D20002C0042656EBC
:1003300064696E67206174202800536574204D69DC
:1003400063726F7374657070696E67005761746370
:1003500068646F6720666561747572652077617384
:10036000206E6F7420636F6D70696C656420696EB8
:10037000746F20746869732076657273696F6E217B
:100380000020746F200053657420766F6C756D6566
:100390007472696320657874727573696F6E206614
:1003A0006F72206578747275646572200044697399
:1003B00061626C656420766F6C756D6574726963DB
:1003C00020657874727573696F6E20666F72206530
:1003D0007874727564657220004D3131342000509C
:1003E000696E2063616E206E6F7420626520736594
:1003F00074206279204D34322C20697320696E207C
:1004000073656E7369746976652070696E732120F7
:1004100000496C6C6567616C20532076616C756572
:1004200020666F72204D3432004175746F726574AE
:10043000726163743A00436F6C64206578747275FE
:1004400073696F6E20646973616C6C6F77656400AB
:10045000436F6C6420657874727573696F6E206188
:100460006C6C6F776564004A616D206465627567C6
:1004700067696E673A004A616D20636F6E74726FD0
:100480006C2064697361626C65643A0052656C61EA
:100490007469766520706F736974696F6E696E67D1
:1004A000004162736F6C75746520706F7369746955
:1004B0006F6E696E6700473332206C6576656C69D4
:1004C0006E67206661696C65642100473239206C73
:1004D0006576656C696E67206661696C656421008C
:1004E000473239206C6576656C696E672066616994
:1004F0006C65642100473239200041646A75737469
:100500006564207A206F726967696E004649524DB2
:10051000574152455F4E414D453A52657065746989
:1005200065725F302E39322E39204649524D57417F
:1005300052455F55524C3A68747470733A2F2F6766
:1005400069746875622E636F6D2F7265706574696A
:1005500065722F52657065746965722D4669726D9A
:10056000776172652F2050524F544F434F4C5F5666
:10057000455253494F4E3A312E30204D4143484960
:100580004E455F545950453A4D656E64656C204543
:10059000585452554445525F434F554E543A3120BA
:1005A00052455045544945525F50524F544F434F66
:1005B0004C3A330044656275673A006F6B000D0A70
:1005C000004E414E00494E46004572726F723A002D
:1005D000496E666F3A005761726E696E673A0052F3
:1005E0006573656E643A004563686F3A006F6B200F
:1005F0000057726F6E6720636865636B73756D007B
:100600004D697373696E6720636865636B73756D9D
:1006100000466F726D6174206572726F7200446F74
:100620006E65207072696E74696E672066696C65AC
:1006300000205800205900205A0020450020460084
:10064000205300205000204900204A00205200532F
:10065000442072656164206572726F720045727227
:100660006F723A6578706563746564206C696E6555
:10067000200020676F742000736B69702000424C6B
:100680004B2000737461727400506F7765725570FF
:100690000045787465726E616C20526573657400F4
:1006A00042726F776E206F757420526573657400A7
:1006B0005761746368646F67205265736574005393
:1006C0006F66747761726520526573657400556E4C
:1006D0006B6E6F776E20636F6D6D616E643A00466E
:1006E0007265652052414D3A00583A0020583A0050
:1006F00020593A00205A3A0020453A00543A002046
:10070000423A0020403A002054002040002042405D
:100710003A0020524157003A002F00202F00666116
:1007200074616C3A0053706565644D756C746970E2
:100730006C793A00466C6F774D756C7469706C79A2
:100740003A0046616E73706565643A0046616E7387
:1007500070656564323A005072696E746564206633
:10076000696C616D656E743A005072696E74696E81
:10077000672074696D653A006D20002064617973AB
:10078000200020686F7572732000206D696E00492B
:100790006E76616C696420617263002C00200059E0
:1007A0003A005A3A0045303A0045313A004D53314B
:1007B0002C4D53322050696E7300536574206F7551
:1007C000747075743A200047657420496E707574B2
:1007D0003A200020746F2000206973200048200018
:1007E0004C2000785F6D696E3A00785F6D61783AF1
:1007F00000795F6D696E3A00795F6D61783A007AD1
:100800005F6D696E3A007A5F6D61783A007A325FA7
:100810006D696E6D61783A004A65726B3A00205AD4
:100820004A65726B3A00206C696E65617220737460
:100830006570733A00207175616472617469632038
:1008400073746570733A002C2073706565643D00A5
:10085000454550524F4D2075706461746564006C5D
:10086000696E656172204C3A002071756164726135
:10087000746963204B3A0046696C616D656E742043
:10088000736C697070696E67002F2F2061637469E3
:100890006F6E3A7061757365002F2F206163746904
:1008A0006F6E3A726573756D650054617267657439
:1008B00045787472005461726765744265643A00E9
:1008C000504944204175746F74756E65207374616E
:1008D00072740020626961733A200020643A20003B
:1008E000206D696E3A2000206D61783A2000204B1F
:1008F000753A20002054753A200020436C617373D0
:1009000069632050494400204B703A2000204B6915
:100910003A2000204B643A2000504944204175742D
:100920006F74756E65206661696C6564212054651D
:100930006D706572617475726520746F6F2068697F
:10094000676800504944204175746F74756E652066
:100950006661696C6564212074696D656F757400EA
:10096000504944204175746F74756E652066696ED8
:100970006973686564202120506C61636520746828
:1009800065204B702C204B6920616E64204B6420E5
:10099000636F6E7374616E747320696E2074686522
:1009A00020436F6E66696775726174696F6E2E6839
:1009B000206F7220454550524F4D004D54454D50CB
:1009C0003A006865617465642062656400657874E6
:1009D000727564657220003A2074656D70207365CD
:1009E0006E736F7220646566656374003A20776F7A
:1009F000726B696E67005072696E74657220736500
:100A00007420696E746F206472792072756E206D27
:100A10006F646520756E74696C20726573746172A1
:100A20007421005A2D70726F62653A005A2D7072EF
:100A30006F626520617665726167652068656967C8
:100A400068743A005265736574205A206865696756
:100A50006874005A2D70726F6265207374617465DA
:100A60003A004731205A350D0000486974207A2D2C
:100A700070726F6265004732380D20473332205361
:100A8000320D004175746F6C6576656C206D617414
:100A9000726978207265736574004175746F6C6556
:100AA00076656C696E6720656E61626C6564004195
:100AB00075746F6C6576656C696E672064697361C7
:100AC000626C6564005472616E73666F726D6174FE
:100AD000696F6E206D61747269783A005A2D707278
:100AE0006F6265206661696C6564005A2D70726F73
:100AF0006265206D61783A005072696E746572208B
:100B00006865696768743A007761697400436F616A
:100B100074696E6720746869636B6E657373205BBC
:100B20006D6D5D005A2D70726F6265206865696732
:100B30006874205B6D6D5D004D61782E207A2D709C
:100B4000726F6265202D2062656420646973742E63
:100B5000205B6D6D5D005A2D70726F6265206F664F
:100B6000667365742078205B6D6D5D005A2D707220
:100B70006F6265206F66667365742079205B6D6DAA
:100B80005D005A2D70726F62652073706565642018
:100B90005B6D6D2F735D005A2D70726F62652078EA
:100BA0002D792D7370656564205B6D6D2F735D000D
:100BB0005A2D70726F6265205831205B6D6D5D003B
:100BC0005A2D70726F6265205931205B6D6D5D002A
:100BD0005A2D70726F6265205832205B6D6D5D001A
:100BE0005A2D70726F6265205932205B6D6D5D0009
:100BF0005A2D70726F6265205833205B6D6D5D00F9
:100C00005A2D70726F6265205933205B6D6D5D00E7
:100C10005A2D70726F62652062656E64696E67201E
:100C2000636F7272656374696F6E2041205B6D6DD6
:100C30005D005A2D70726F62652062656E64696E28
:100C40006720636F7272656374696F6E2042205B08
:100C50006D6D5D005A2D70726F62652062656E6405
:100C6000696E6720636F7272656374696F6E20438B
:100C7000205B6D6D5D004175746F6C6576656C20F1
:100C80006163746976652028312F302900436F6EC7
:100C900066696775726174696F6E2073746F7265CF
:100CA0006420746F20454550524F4D2E00436F6EA7
:100CB00066696775726174696F6E206C6F616465D7
:100CC000642066726F6D20454550524F4D2E004393
:100CD0006F6E66696775726174696F6E2072657395
:100CE000657420746F2064656661756C74732E0082
:100CF00050726F746F636F6C2076657273696F6E7C
:100D0000206368616E6765642C207570677261642A
:100D1000696E67004550523A3020004550523A31D2
:100D200020004550523A3220004550523A332000BC
:100D30004261756472617465004C616E67756167CC
:100D4000650046696C616D656E74207072696E74C1
:100D50006564205B6D5D005072696E746572206120
:100D60006374697665205B735D004D61782E206940
:100D70006E6163746976652074696D65205B6D735F
:100D80002C303D6F66665D0053746F702073746520
:100D90007070657220616674657220696E6163743B
:100DA0006976697479205B6D732C303D6F66665D82
:100DB0000058206D696E20706F73205B6D6D5D0053
:100DC00059206D696E20706F73205B6D6D5D005AE8
:100DD000206D696E20706F73205B6D6D5D00582013
:100DE0006D6178206C656E677468205B6D6D5D0069
:100DF00059206D6178206C656E677468205B6D6D3D
:100E00005D005A206D6178206C656E677468205BA8
:100E10006D6D5D0058206261636B6C617368205B6F
:100E20006D6D5D0059206261636B6C617368205B5E
:100E30006D6D5D005A206261636B6C617368205B4D
:100E40006D6D5D004D61782E206A65726B205B6D63
:100E50006D2F735D00416363656C65726174696FCA
:100E60006E20666163746F7220617420746F7020ED
:100E70005B252C3130303D6C696B6520626F74747A
:100E80006F6D5D004D61782E205A2D6A65726B2062
:100E90005B6D6D2F735D00582D61786973207374DD
:100EA00065707320706572206D6D00592D617869D1
:100EB0007320737465707320706572206D6D005AB5
:100EC0002D6178697320737465707320706572206A
:100ED0006D6D00582D61786973206D61782E2066E4
:100EE00065656472617465205B6D6D2F735D00597B
:100EF0002D61786973206D61782E20666565647256
:100F0000617465205B6D6D2F735D005A2D6178698A
:100F100073206D61782E206665656472617465204A
:100F20005B6D6D2F735D00582D6178697320686F5C
:100F30006D696E67206665656472617465205B6DBE
:100F40006D2F735D00592D6178697320686F6D692D
:100F50006E67206665656472617465205B6D6D2FD8
:100F6000735D005A2D6178697320686F6D696E67D3
:100F7000206665656472617465205B6D6D2F735DBD
:100F800000582D6178697320616363656C657261D7
:100F900074696F6E205B6D6D2F735E325D00592D2D
:100FA0006178697320616363656C65726174696FF0
:100FB0006E205B6D6D2F735E325D005A2D61786916
:100FC0007320616363656C65726174696F6E205B29
:100FD0006D6D2F735E325D00582D617869732074DA
:100FE000726176656C20616363656C6572617469BA
:100FF0006F6E205B6D6D2F735E325D00592D6178D1
:1010000069732074726176656C20616363656C65D9
:10101000726174696F6E205B6D6D2F735E325D005F
:101020005A2D617869732074726176656C206163F2
:1010300063656C65726174696F6E205B6D6D2F7393
:101040005E325D004F5053206F7065726174696F3E
:101050006E206D6F6465205B303D4F66662C313DC0
:10106000436C61737369632C323D466173745D0038
:101070004F5053206D6F76652061667465722078DD
:10108000252072657472616374205B255D004F508A
:1010900053206D696E2E2064697374616E636520E0
:1010A000666F722066696C2E20726574726163745B
:1010B000696F6E205B6D6D5D004F505320726574DB
:1010C00072616374696F6E206C656E677468205B13
:1010D0006D6D5D004F505320726574726163746969
:1010E0006F6E206261636B6C617368205B6D6D5D18
:1010F000004265642048656174204D616E616765DA
:1011000072205B302D335D004265642050494420DD
:101110006472697665206D6178004265642050498B
:1011200044206472697665206D696E0042656420B2
:1011300050494420502D6761696E0042656420501B
:10114000494420492D6761696E0042656420504919
:101150004420442D6761696E004265642050494413
:10116000206D61782076616C7565205B302D32359D
:10117000355D00737465707320706572206D6D004D
:101180006D61782E206665656472617465205B6DA3
:101190006D2F735D0073746172742066656564728F
:1011A000617465205B6D6D2F735D00616363656CB9
:1011B00065726174696F6E205B6D6D2F735E325D59
:1011C0000068656174206D616E61676572205B30D7
:1011D0002D335D00504944206472697665206D614D
:1011E0007800504944206472697665206D696E000C
:1011F00050494420502D6761696E2F646561642DEC
:1012000074696D6500486561746572206465616428
:101210002D74696D65006E6120666F722064656172
:10122000642074696D65206374726C0050494420B9
:10123000492D6761696E0050494420442D676169FA
:101240006E00504944206D61782076616C75652090
:101250005B302D3235355D00582D6F6666736574D1
:10126000205B73746570735D00592D6F66667365DE
:1012700074205B73746570735D005A2D6F666673BE
:101280006574205B73746570735D0074656D702E9A
:101290002073746162696C697A652074696D652078
:1012A0005B735D0074656D702E20666F72207265D1
:1012B0007472616374696F6E207768656E2068650B
:1012C0006174696E67205B435D0064697374616E6D
:1012D000636520746F20726574726163742077682F
:1012E000656E2068656174696E67205B6D6D5D0079
:1012F000657874727564657220636F6F6C657220B7
:101300007370656564205B302D3235355D00616436
:1013100076616E6365204B205B303D6F66665D00D5
:10132000616476616E6365204C205B303D6F66665C
:101330005D00534420696E6974206661696C0065C4
:1013400072726F722077726974696E6720746F2091
:1013500066696C6500426567696E2066696C652028
:101360006C69737400456E642066696C65206C69F5
:1013700073740046696C65206F70656E65643A0031
:101380002053697A653A0046696C652073656C651F
:10139000637465640066696C652E6F70656E2066A7
:1013A00061696C6564005344207072696E74696E83
:1013B00067206279746520004E6F7420534420705A
:1013C00072696E74696E67006F70656E2066616920
:1013D0006C65642C2046696C653A2000577269740C
:1013E000696E6720746F2066696C653A2000446FEF
:1013F0006E6520736176696E672066696C652E0084
:1014000046696C652064656C657465640044656C50
:101410006574696F6E206661696C65640044697209
:101420006563746F727920637265617465640043EB
:1014300072656174696F6E206661696C65640053E2
:1014400044206572726F72436F64653A004865614B
:10145000746572206465636F75706C6564004F6EAF
:101460006520686561746572207365656D732064BD
:1014700065636F75706C65642066726F6D2074684B
:1014800065726D6973746F72202D20646973616277
:101490006C696E6720616C6C20666F722073616688
:1014A0006574792100456E61626C652072657472A5
:1014B000616374696F6E20636F6E76657273696FB6
:1014C0006E205B302F315D00526574726163746908
:1014D0006F6E206C656E677468205B6D6D5D005289
:1014E000657472616374696F6E206C656E67746891
:1014F00020657874727564657220737769746368A7
:10150000205B6D6D5D0052657472616374696F6E0E
:10151000207370656564205B6D6D2F735D0052658F
:101520007472616374696F6E207A2D6C69667420C1
:101530005B6D6D5D004578747261206578747275BD
:1015400073696F6E206F6E20756E646F20726574A4
:1015500072616374205B6D6D5D004578747261200B
:10156000657874727573696F6E206F6E20756E6426
:101570006F20737769746368207265747261637435
:10158000205B6D6D5D0052657472616374696F6E8E
:1015900020756E646F20737065656400436F6E66BE
:1015A00069673A00457874722E005072696E7465EE
:1015B000724D6F64653A464646005072696E7465B6
:1015C000724D6F64653A4C61736572005072696E5A
:1015D0007465724D6F64653A434E4300473420533F
:1015E000310A0047342053330A004739310A004D8D
:1015F0003434340A00473120582D353020463230FB
:1016000030300A00473120583530204632303030F3
:101610000A00473120592D35302046323030300A0B
:10162000004731205935302046323030300A0047EB
:1016300031205A3520463230300A004731205A2DA9
:101640003520463230300A004D31303620533130AB
:10165000300A004D3130370A004D313930205334D3
:10166000300A004D31303920533230300A004731D2
:1016700020453820463230300A00473120452D338E
:1016800020463230300A000D0E0A206D61726B6503
:1016900064206465636F75706C656400206D6172B1
:1016A0006B656420646566656374004F7468657279
:1016B0003A001C151C143A21002243141F1F132E3C
:1016C000AD171D187118E1183119191A00009D1A6B
:1016D000251B311C811CFD1C791DC51D53656C65C6
:1016E000637445787472756465723A004469736115
:1016F000626C696E6720616C6C20686561746572EC
:10170000732064756520746F206465746563746507
:10171000642073656E736F72206465666563742EF2
:1017200000206465672E204300206D65617375722B
:10173000656420004572726F723A436F756C642065
:101740006E6F7420686F6C642074656D7065726173
:10175000747572652000206D730020616674657277
:1017600020004572726F723A54656D702E2072615E
:101770006973656420746F20736C6F772E205269D3
:101780007365203D2000486561746564206265646E
:10179000206578636565646564206D617820746593
:1017A0006D7065726174757265210000000000A0A3
:1017B0000F5C006009690010097900C0088C007096
:1017C00008A2002008BD00D007DE00800705013018
:1017D000073401E0066D019006B20140060702F0F1
:1017E000056D02A005E80250057B0300052B04B03F
:1017F00004F8046004EB06C003350920037F0B8066
:1018000002650DE001B00E40011D0FF000480FC849
:10181000006C0FA000ED0F60FFFE0F48FE0400807B
:101820001AD8009808AC012007800250065403C85B
:101830000528045805FC040005D005B004A406687A
:1018400004780728044C08E8032009B003F4097061
:1018500003C80A38039C0BF802700CB002440D68F0
:1018600002180E0802EC0E8801C00F8800F00F006D
:10187000000400001B54006009640010097400C0DB
:1018800008840070089C002008B800D007D80080A9
:1018900007000130072C01E00668019006AC01400A
:1018A000060002F0056802A005E00250057403007E
:1018B000052404B004F0046004DC051004E406C050
:1018C000030408700330092003780B8002600DE0E8
:1018D00001A80E4001680FA000C00F0000E80F60D3
:1018E000FF0400700DD8004804AC0158038002D8F2
:1018F000025403800228043802FC040002D005C808
:1019000001A4069801780770014C084801200918C5
:1019100001F409F000C80AC8009C0BA000700C700C
:1019200000440D3800180E0000EC0EA8FFC00FE8B0
:10193000FE380060093B003809400010094600E805
:10194000084C00C00852009808590070086200480E
:10195000086C0020087600F8078000D0079100A8E6
:10196000079C008007A8005807BB003007D000087C
:1019700007E300E006F800B806100190062D0168A4
:101980000650014006720118069001F005C201C818
:1019900005EC01A0052802780567025005B202286F
:1019A00005EE0200053E03D8049803B004F2038854
:1019B000045E046004BF04380432051004B405E872
:1019C000033A06C003D80698036C077003F807486B
:1019D00003980820032E09F802D409D0026F0AA840
:1019E000020F0B80029F0B58022B0C3002B30C0825
:1019F000022F0DE001980DB801FC0D90014C0E680E
:101A0000019C0E4001140FF000480FC8006C0FA09D
:101A100000ED0F60FFFE0F48FE38006009BB00D0EC
:101A2000076702F005B702C805F502A0054703786D
:101A300005A3035005FE0328056B040005CD04D85B
:101A40000441058804C40560044B063804EA061006
:101A5000047F07E8030C08C003AD0898034409702D
:101A600003EB094803870A1003280BE002B90BA80F
:101A700002460C6002CF0C4002B60DF001240EA00D
:101A8000017E0E7001D80E4001140FF000480FC8FF
:101A9000006C0FA000ED0F60FFFE0F48FE0000403D
:101AA0001F450060094F0010095C00C0086B007002
:101AB000087D0020089200D007AC008007CC0030E1
:101AC00007DE00E006230190065E014006A601F055
:101AD00005FF01A0056D025005F30200059603B055
:101AE000045A046004400510044806C0036E0770E1
:101AF00003A8082003EB09D002230B8002410C301D
:101B000002390DE001040E9001A20E4001170FF002
:101B100000690FA000A20F5000C60F0000DD0FB03B
:101B2000FFEB0F60FF0400681D4C00500B94005841
:101B300009DC0050082401A8076C012807B401C083
:101B400006FC017006440228068C02F005D402B897
:101B5000051C03880564035805AC033005F4031025
:101B6000053C04E8048404C804CC04A804140590CB
:101B7000045C057004A4055804EC05380434062000
:101B8000047C060804C406F0030C07D8035407C8F5
:101B9000039C07B003E40798032C088003740870C3
:101BA00003BC085803040948034C0930039409187E
:101BB00003DC090803240AF0026C0AE002B40AC834
:101BC00002FC0AB002440BA0028C0B8802D40B70FA
:101BD000021C0C5802640C4002AC0C2802F40C10DD
:101BE000023C0DF001840DD801CC0DB801140E9803
:101BF000015C0E7001A40E4801EC0E1801340FD8E0
:101C0000007C0F8800C40F0800FC0F0000000000DB
:101C100000000000000000000000000000000000C4
:101C200000000000000000000000000000000000B4
:101C30000004000016D800C006AC0178058002C080
:101C400004540348042804E803FC049803D0055016
:101C500003A40618037807D8024C08A802200970CC
:101C600002F4093802C80A08029C0BD001700C90DB
:101C700001440D5001180EF800EC0E8800C00F0052
:101C8000000400401D900060091C01B007A801D0AD
:101C90000634023806C002C8054C036805D803188C
:101CA000056404D804F00498047C05600408063038
:101CB00004940600042007D003AC07A8033808806A
:101CC00003C408580350093003DC090803680AE01C
:101CD00002F40AB802800B88020C0C6002980C30E7
:101CE00002240DF801B00DC0013C0E8001C80E3079
:101CF00001540FB800B40F2800E00F0000040008E2
:101D00001D900058091C01B007A801C80634023014
:101D100006C002C0054C036805D80318056404D04A
:101D200004F00498047C056004080630049406005E
:101D3000042007D003AC07A80338088003C4085860
:101D40000350093003DC090803680AD802F40AB01A
:101D500002800B88020C0C6002980C3002240DF8F3
:101D600001B00DC0013C0E8001C80E3001540FB807
:101D700000B40F2800E00F0000000000008C0308F2
:101D800000AE035000D603A000F703F00018044093
:101D900001380490015904E0017A0430029A048069
:101DA00002BB04D002FC0470032605C00386063083
:101DB000079709A00F750D201C520E401F1F0F60C2
:101DC00022FF0F803E0400501D7C00D009A40010AB
:101DD00009CC008008F40010081C01B80744016811
:101DE000076C0128079401E806BC01B806E40188E5
:101DF000060C026006340238065C0218068402F003
:101E000005AC02D805D402B805FC0298052403806D
:101E10000574035005C4032805140400056404D8A0
:101E200004B404B0042C058004A40558041C06283E
:101E300004940600040C07D803AC07A8034C0878E8
:101E400003EC0848038C092003A40AD0021C0BA849
:101E500002AC0C2802FC0C0802C40DB801140E9848
:101E600001B40E38012C0FE000540FB8007C0F882D
:101E700000A40F4800F40F28FFFC0FC0F9696E663C
:101E80006F3A436F6E74696E75652066726F6D2070
:101E9000666174616C207374617465000020507217
:101EA000696E7465722073746F7070656420616E02
:101EB0006420686561746572732064697361626C23
:101EC00065642064756520746F207468697320658B
:101ED00072726F722E20466978206572726F72205E
:101EE000616E6420726573746172742077697468BE
:101EF000204D3939392E005344206572726F72209B
:101F00006669786564005344206572726F7220645C
:101F10006964206E6F74207265636F76657221004C
:101F200053442052656164204572726F72004269A9
:101F30006E6172793A00436F6D6D616E64427566D1
:101F4000666572004D697373696E67206C696E65B2
:101F50006E756D62657200000000000000000000F8
:101F60000000000000000024F403D950C38EB1C269
:101F7000A23D96828B3582127AE372816CCB66A881
:101F800061015DC758EB546151204E1E4B5648C14C
:101F90004559431A41013F093D2F3B7139CD374027
:101FA00036C93465331432D430A32F802E6B2D63A1
:101FB0002C672B752A8E29B028DC2710274B268FFB
:101FC00025D9242B248223E0224322AC211A218DFF
:101FD000200420801F001F841E0C1E971D261DB884
:101FE0001C4E1CE61B821B201BC11A641A0A1AB263
:101FF000195D190A19B9186A181C18D117881740E1
:1020000017FA16B51673163116F115B31576153A7B
:10201000150015C7148F1458142214EE13BA138820
:102020001356132513F612C71299126C124012158B
:1020300012EB11C1119811701148112111FB10D62A
:1020400010B1108D106910461024100210E10FC05D
:102050000FA00F800F610F420F230F060FE80ECB6A
:102060000EAF0E930E770E5C0E410E270E0D0EF383
:102070000DDA0DC10DA80D900D780D600D490D32D2
:102080000D1B0D050DEF0CD90CC30CAE0C990C8576
:102090000C700C5C0C480C350C210C0E0CFB0BE886
:1020A0000BD60BC40BB20BA00B8E0B7D0B6B0B5A1C
:1020B0000B4A0B390B290B180B080BF80AE90AD944
:1020C0000ACA0ABB0AAC0A9D0A8E0A800A710A6310
:1020D0000A550A470A390A2C0A1E0A110A040AF785
:1020E00009EA09DD09D009C409B709AB099F0992BA
:1020F0000987097B096F09630958094C09410936A9
:10210000092B09200915090A090009F508EB08E05F
:1021100008D608CC08C208B808AE08A4089A0890E7
:102120000887087D0874086B08610858084F08463E
:10213000083D0834082C0823081A08120809080169
:1021400008F807F007E807E007D807D007C807C076
:1021500007B807B007A807A1070000420FA107169C
:1021600005D0030D038B022E02E801B20186016344
:102170000145012C0117010401F40066696C616DD1
:10218000656E7420496E73746572210066696C61B6
:102190006D656E742052756E204F757421004D610F
:1021A0007854656D703A004469616D657465723A82
:1021B00000416363656C65726174696F6E3A004DCE
:1021C000617853706565643A004A65726B3A004DF8
:1021D000617842656454656D703A005072696E743E
:1021E0006572547970653A43617274657369616EA2
:1021F000005A54726176656C416363656C3A0059AC
:1022000054726176656C416363656C3A0058547230
:102210006176656C416363656C3A005A5072696E11
:1022200074416363656C3A00595072696E7441631E
:1022300063656C3A00585072696E74416363656CF3
:102240003A005A53697A653A005953697A653A00F7
:102250005853697A653A005A4D61783A00594D6190
:10226000783A00584D61783A005A4D696E3A0059F3
:102270004D696E3A00584D696E3A0052657472614C
:102280006374696F6E556E646F53706565643A0070
:1022900052657472616374696F6E556E646F4578D0
:1022A0007472614C6F6E674C656E6774683A005269
:1022B000657472616374696F6E556E646F4578748E
:1022C00072614C656E6774683A005265747261633E
:1022D00074696F6E5A4C6966743A00526574726123
:1022E0006374696F6E53706565643A005265747209
:1022F000616374696F6E4C6F6E674C656E6774686E
:102300003A0052657472616374696F6E4C656E67F2
:1023100074683A004A65726B5A3A004A65726B58A3
:10232000593A005072696E746C696E6543616368F6
:10233000653A00454550524F4D3A004175746F6CF7
:102340006576656C3A005A50726F62653A00436177
:1023500073654C69676874733A00537570706F7277
:10236000744C6F63616C46696C616D656E74636813
:10237000616E67653A00537570706F7274473130E3
:102380004731313A005A486F6D654469723A0059D5
:10239000486F6D654469723A0058486F6D654469CD
:1023A000723A00536F667477617265506F77657229
:1023B0005377697463683A004C43443A0046616E4F
:1023C000323A300046616E3A005344436172643AD7
:1023D000004865617465644265643A004D697869D6
:1023E0006E6745787472756465723A004E756D4516
:1023F000787472756465723A00496E7075744275CE
:10240000666665723A0042617564726174653A008D
:102410004E6F2063617365206C6967687473006830
:102420006F6D654178697320004E65656473206C3B
:10243000616E67756167652073656C656374696F4C
:102440006E0044656275674C6576656C3A00656E32
:102450006473746F7073206869743A200000534489
:10246000207072696E742073746F7070656420627E
:102470007920757365722E000000534420636172E9
:102480006420696E736572746564005344206361EF
:1024900072642072656D6F766564000000211042E1
:1024A0002063308440A550C660E770088129914AB6
:1024B000A16BB18CC1ADD1CEE1EFF131121002733D
:1024C000325222B5529442F772D662399318837B06
:1024D000B35AA3BDD39CC3FFF3DEE362244334208D
:1024E000040114E664C774A44485546AA54BB52856
:1024F000850995EEE5CFF5ACC58DD553367226111D
:10250000163006D776F6669556B4465BB77AA719A5
:10251000973887DFF7FEE79DD7BCC7C448E55886E4
:1025200068A7784008611802282338CCC9EDD98EF5
:10253000E9AFF9488969990AA92BB9F55AD44AB77C
:102540007A966A711A500A333A122AFDDBDCCBBF45
:10255000FB9EEB799B588B3BBB1AABA66C877CE44C
:102560004CC55C222C033C600C411CAEED8FFDEC95
:10257000CDCDDD2AAD0BBD688D499D977EB66ED55C
:102580005EF44E133E322E511E700E9FFFBEEFDDE5
:10259000DFFCCF1BBF3AAF599F788F8891A981CAC2
:1025A000B1EBA10CD12DC14EF16FE18010A100C2A1
:1025B00030E3200450254046706760B9839893FB50
:1025C000A3DAB33DC31CD37FE35EF3B1029012F3F1
:1025D00022D2323542145277625672EAB5CBA5A8A0
:1025E0009589856EF54FE52CD50DC5E234C324A041
:1025F0001481046674476424540544DBA7FAB79930
:1026000087B8975FE77EF71DC73CD7D326F2369190
:1026100006B01657667676154634564CD96DC90EF7
:10262000F92FE9C899E9898AB9ABA94458654806E0
:10263000782768C018E1088238A3287DCB5CDB3F8F
:10264000EB1EFBF98BD89BBBAB9ABB754A545A3730
:102650006A167AF10AD01AB32A923A2EFD0FED6C5F
:10266000DD4DCDAABD8BADE89DC98D267C076C6480
:102670005C454CA23C832CE01CC10C1FEF3EFF5D6F
:10268000CF7CDF9BAFBABFD98FF89F176E367E55D0
:102690004E745E932EB23ED10EF01E7C3C3E5E2BFD
:1026A0003D3F2F5B5D3B2C2A225C004E6F20657204
:1026B000726F7220666F756E642E0043616E2774B0
:1026C000206F70656E20726F6F742064697265632D
:1026D000746F72792E00496E76616C696420666F42
:1026E000726D61742C207265666F726D6174205317
:1026F000442E004E6F20636172642C2077726F6EDF
:102700006720636869702073656C65637420706905
:102710006E2C206F72205350492070726F626C656E
:102720006D3F0043616E277420616363657373209E
:10273000534420636172642E20446F206E6F7420B6
:102740007265666F726D61742E000000FF000000FC
:1027500000010100000000FF0000031027020049F3
:102760002A03102702004D2A0100000100512A020D
:1027700000000500532A03ED0304005D2A03EE0365
:102780000400652A03EF0304006D2A03FA03040022
:10279000752A03FB0304007D2A03FC030400852A39
:1027A00002000009008D2A02000005009F2A020095
:1027B000000C00A92A0588130400C12A031027026F
:1027C00000C92A0310270200CD2A0310270200D1D6
:1027D0002A0310270200D52A0310270200D92A0352
:1027E00010270200DD2A55495F414354494F4E5F8F
:1027F000484F4D45414C4C200052657175657374CE
:1028000050617573653A00696D706F7274616E74B2
:102810003A2046696C616D656E74206368616E670D
:1028200065207265717569726564210055495F4163
:102830004354494F4E5F484F4D455F5A200055491C
:102840005F414354494F4E5F484F4D455F5920000B
:1028500055495F414354494F4E5F484F4D455F587E
:10286000200055495F414354494F4E5F484F4D4505
:10287000414C4C20004A616D20636F6E74726F6C26
:102880002064697361626C65643A0003102702007A
:10289000E12A55495F414354494F4E5F484F4D45EA
:1028A000414C4C20008025000040380000004B00C7
:1028B000008070000000960000C0DA000000E10017
:1028C00000002C010008B2010000C2010000F40168
:1028D000000084030090D0030000E8030000080714
:1028E0000020A1070000100E0040420F0060E31618
:1028F000000000000055495F414354494F4E5F4579
:10290000504F534954494F4E200055495F4143545D
:10291000494F4E5F5A504F534954494F4E5F4641BD
:102920005354200055495F414354494F4E5F59501D
:102930004F534954494F4E5F464153542000554927
:102940005F414354494F4E5F58504F534954494F8C
:102950004E5F46415354200055495F414354494F0F
:102960004E5F5A504F534954494F4E200055495FCE
:10297000414354494F4E5F59504F534954494F4E6C
:10298000200055495F414354494F4E5F58504F53C3
:102990004954494F4E20000200000900E52A00007A
:1029A00002F72A0000A200FE2A052B0C2B132B8213
:1029B00000000C001A2B0300040020646563200053
:1029C0002064656620000000003FCDCC4C3D0AD756
:1029D000A33B6F12033A52657065746965722030CB
:1029E0002E39322E39004166696E69626F74203368
:1029F00044205072696E746572004D6F64656C3A64
:102A00004133530046575665723A5632000040141F
:102A100054040E150404041C00040A040000000001
:102A200000001F1F1F1F1F0000001F1111111F009A
:102A300000040A0A0A0E1F1F0E001C1F11111F009E
:102A400000001F1511151F1F00322B3B2B442B4D6F
:102A50002B562B5F2B682B712B7A2B832B8C2B9572
:102A60002B9E2BA72BB02BB92BC22BCB2BD42BDD22
:102A70002BE62BEF2BF82B012C0A2C132C1C2C25CE
:102A80002C2E2C372C402C492C522C5B2C642C6D7A
:102A90002C762C7F2C882C912C9A2CA32CAC2CB52A
:102AA0002CBE2CC72CD02CD92C642CE22CEB2CF473
:102AB0002CFD2C062D0F2D182D212D2A2DD02C3339
:102AC0002D3C2D452D4E2D572D602D692D722D7BC2
:102AD0002D842D8D2D962D9F2DA82DB12DBA2DC372
:102AE0002DCC2DD52DDE2D5F2BE72DF02DF92D02D0
:102AF0002E0B2E142E1D2E0200000800262E000084
:102B0000000400342E00000004003C2E00000004ED
:102B100000442E00000004004C2E542E5D2E662E24
:102B20006F2E782E812E8A2E932E9C2EA52EAE2EC1
:102B3000B72E00000000000000A50000000000000B
:102B40000000A60000000000000000A70000000038
:102B500000000000A800000003E80300000A0000D5
:102B60000003F50301024800000003F603020449D4
:102B700000000003F70304004A00000002C02E0218
:102B800000C900000003F40301024D000000000032
:102B90000000005700000000000000005800000086
:102BA00000000000005900000000000000005A0072
:102BB000000000000000005B0000000000000000BA
:102BC0005C00000000000000005D0000000000004C
:102BD00000005E00000000000000005F0000000038
:102BE0000000000060000000000000000061000024
:102BF0000000000000006200000000000000006310
:102C00000000000000000000640000000000000060
:102C100000650000000000000000660000000000E9
:102C200000000067000000000000000068000000D5
:102C300000000000006900000000000000006A00C1
:102C4000000000000000006B000000000000000019
:102C50006C00000000000000006D0000000000009B
:102C600000006E00000003FD03008013000000045C
:102C70001F040000B00000000448040000B1000080
:102C8000000388130000CB00000003370400001786
:102C9000000000034704000018000000033804008F
:102CA000001A00000003310400101B000000034361
:102CB0000400801C000000046104000024000000E7
:102CC000046204000025000000033A04000028000C
:102CD000000002C72E00002300000003440400008F
:102CE0002E00000003FE0300801400000003FF0319
:102CF00000801500000003000400801600000002A0
:102D00008B2700001E00000002762700001D000037
:102D100000029227000020000000027D2700001F13
:102D20000000000299270000220000000284270012
:102D3000002100000002CE2E00000601000000006D
:102D4000000000CC0000000000000000CD000000EA
:102D50000000000000CE0000000000000000CF00D6
:102D600000000000000000DA000000000000000089
:102D7000DC0000000000000000DA0000000000009D
:102D80000000DD0000000000000000DA000000008C
:102D900000000000DE0000000000000000DA00007B
:102DA000000000000000E10000000000000000DA68
:102DB0000000000000000000DF0000000000000034
:102DC00000DA0000000000000000E0000000000049
:102DD000000000DA0000000000000000F700000022
:102DE00002A02700000B00000002AE2700000E002A
:102DF000000002A72700000F00000002D52E0000EF
:102E00007D00000002DC2E0010D9000000026F27B8
:102E100000001000000002E32E000011000000027C
:102E2000EA2E00000D00F12EFA2E032F0C2F152F85
:102E30001E2F272F302F392F422F4B2F542F5D2F2E
:102E4000662F6F2F782F812F8A2F932F9C2FA52FDE
:102E5000AE2FB72FC02F03A42600000000C82F03F9
:102E6000A52600000000D02F03A92600000000D8EE
:102E70002F03A72600000000E22F03AB260000006E
:102E800000EB2F03A62600000000F72F03A8260062
:102E9000000000003003AF2600000000063003AA47
:102EA00026000000000E3003AC26000000001630A3
:102EB00003AD26000000001D3003AE260000000018
:102EC0000200000300223003F00304002830020057
:102ED0000003003030020000070036300200000717
:102EE0000044300200000600523002000008005E7C
:102EF000300000042D040000930000000422042090
:102F00000094000000042304200097000000042423
:102F1000042000980000000425042000990000000F
:102F200004260420009A000000042F0400009B00E7
:102F300000000000000000EB0000000000000000A6
:102F4000ED0000000000000000EE000000000000A6
:102F50000000F30000000000000000570000000027
:102F6000000000005B00000000000000005F0000A7
:102F7000000000000000F30000000000000000ACB2
:102F80000000000000000000AF0000000000000092
:102F900000F40000000000000000F300000000004A
:102FA000000000C30000000000000000F00000006E
:102FB0000000000000C40000000000000000F1005C
:102FC000456E676C69736800446575747363680067
:102FD000457370616E6F6C00506F727475677565C4
:102FE00073004672616E63616973004E6564657259
:102FF0006C616E647365004974616C69616E6F0029
:1030000053756F6D69005376656E736B6100436530
:103010007374696E6100506F6C736B690054F57264
:103020006B006E3077308030893092309B30A43026
:10303000AD30B630BF30C830D130DA30E330EC30AC
:10304000F530FE3007311031193122312B31343156
:103050003D3146314F31583161316A3173317C3104
:1030600085318E319731A0319E29A931B2310000CE
:103070000100000000C900000003E8030000040094
:1030800000000354240200030000000000000000C0
:103090006F00000000000000007000000000000051
:1030A0000000AB0000000000000000F2000000047F
:1030B000B40F00000701000004B50F000008010074
:1030C0000004B60F00000901000004520400007E55
:1030D000000000031A0408007F000000031B040026
:1030E0000080000000031C04000081000000031D9C
:1030F00004000082000000031E04000083000000A2
:1031000003B4040000D200000003B7040010DC0088
:10311000000003BE040010DD00000003B504001031
:10312000DE00000003B6040010DF00000003B80456
:103130000010E000000003B9040010E100000004EA
:10314000BD040010E300BB3103C80F000000000005
:1031500000037E0400003C000000037F0400003DEB
:1031600000000003800400003E0000000381040012
:10317000003F00000003820400000A01000002D1A9
:103180003100008A00000002D8310000E400000095
:1031900002DF3100003900000002E63100004E007D
:1031A000000002ED3100000F0000000306040000E3
:1031B0003A00000003070400003B00417373656D93
:1031C000626C6520636865636B2077697A617264FD
:1031D000000200000500F4310200000C00FE310284
:1031E000000008001632020000060026320200002D
:1031F0001000323252325B3264326D327632542EEB
:103200005D2E662E6F2E782E812E8A2E932E9C2E6A
:10321000A52EAE2EB72E7F32883291329A32A3324B
:10322000AC32B532BE32C732D032D932E232EB32B2
:10323000F432FD3206330F33183321332A3333335C
:10324000F12EFA2E032F0C2F152F1E2F3C33453352
:10325000272F000004100400008B000000024E33F2
:1032600000008400000002553300008700000003C6
:10327000B2040000D0005C3303BF04000000000073
:103280000004080400002F000000040904000030BE
:10329000000000040A04000031000000040B0400D8
:1032A0000033000000040C04000034000000040D92
:1032B00004000035000000040E0400003700000088
:1032C000040F0400003800000004140400004F0044
:1032D0000000041504000050000000041604000063
:1032E0005100000004110400005300000004120407
:1032F0000000540000000413040000550000000406
:10330000290400008C000000042C0400008D000043
:1033100000042B0400008E000000042A0400008F2B
:10332000000000042E04000090000000044D040082
:1033300000BC000000044C040000BB00000004229C
:10334000044000950000000426044000960003207D
:103350000402006E33035804020072334175746F27
:103360006C65766C65204D656173757265007633AA
:103370007F33883391330000000000000085000097
:10338000000000000000860000000000000000882F
:1033900000000000000000008900BF33D535EB3786
:1033A000013A173C2D3E434059426F4485469B48A5
:1033B000B14A000102030405060708090A0BFFC70A
:1033C0004CCA4CCE4CD24CD64CD94CE54CEE4CF3BE
:1033D0004CFE4C0E4D154D244D284D364D3F4D485D
:1033E0004D504D5A4D654D6E4D754D7C4D834D8FF5
:1033F0004D9B4DA64DAF4DBD4DCD4DD84DE44DEF40
:103400004DFB4D064E124E214E344E474E5A4E6DD8
:103410004E7E4E8F4EA04EB34EC64ED94EE44EF069
:103420004EFC4E084F124F1E4F2A4F364F3F4F4B08
:103430004F574F644F744F834F8F4F9B4FA74FB3DE
:103440004FBF4FCF4FDC4FEB4FFA4F095018502270
:10345000502D5039504850555060506C5075507F29
:1034600050895093509B50A650B150BC50C550D578
:1034700050E550F550F65006511651265127513758
:103480005147515751585161517151815182518B5E
:10349000519B51AB51AC51B551C551D551D651DFAE
:1034A00051EE51F7510752105220522952395242CF
:1034B0005252525B526B52745284528E529F52AC93
:1034C00052BA52C852D652E352F452045310531E09
:1034D000532E533A5342534F535C53695374537EA4
:1034E000538C539C53AD53B953C353D053E053EA59
:1034F00053F453025410541C54295436543F54432B
:10350000544E545F546B54725483549154A254B02B
:1035100054C154CE54D954E954FA540B551C552C6B
:10352000553E5550555B5567556F5578557F5586B7
:10353000558D55A055AC55BD55CF55DF55F055FFB0
:103540005506560856095617562856305641564BBA
:103550005654565F56715681569156A756B856CE58
:1035600056DD56ED56015711571C572C573D574AFB
:103570005752575E57715772577D5786578D579DD3
:1035800057AC57B757BE57CB57D457E557F6570CDC
:103590005824582D58315844584E585F5874588004
:1035A0005884588A5898589C589D58A758AD58B474
:1035B00058C758DA58ED58FE580F59205933594614
:1035C000595959675972597F598C599F59B159C4E2
:1035D00059D759EA59F659F959FD59005A035A0869
:1035E0005A125A1A5A235A325A435A4C5A5A5A5E43
:1035F0005A6C5A755A7E5A875A915A9C5AA65AAD95
:103600005AB45ABB5AC95AD75AE35AEC5AFC5A0C04
:103610005B175B265B315B405B4B5B5A5B695B7C9A
:103620005B8F5BA25BB55BC45BD35BE25BF45B0669
:103630005C185C285C365C445C525C5E5C6C5C7A5A
:103640005C885C945CA25CB05CBF5CCE5CDE5CEED3
:103650005CFE5C0E5D1E5D2A5D3C5D4C5D5B5D6AE3
:103660005D795D885D925D9F5DAF5DBC5DCA5DD635
:103670005DE45DED5DF75D015E0B5E135E1E5E2930
:103680005E345E3D5E4D5E5E5E6F5E705E805E913E
:103690005EA25EA35EB35EC45ED55ED65EDF5EF004
:1036A0005E015F025F0B5F1C5F2D5F2E5F375F481F
:1036B0005F595F5A5F635F725F7B5F8B5F945FA44C
:1036C0005FAD5FBD5FC65FD65FDF5FEF5FF85F082E
:1036D000600F601D60286039604A605B60676075DC
:1036E0006083608F609C60AA60B660C060CD60D966
:1036F00060E660F160FD600B611B612C6137614128
:10370000614D615E616861726180618E619A61A7DD
:1037100061B461BD61C161CC61DB61EB61F66102E5
:103720006210621D622B62346241624C625C626DA7
:10373000627E628F629E62B062C162CF62DD62E7CA
:1037400062F062F96202630B631D63296339634AA5
:10375000635C636F637F638663886389639863AA2E
:1037600063B363C763CF63D863E863FA630A641B18
:1037700064316442645864676477648A649F64ADAA
:1037800064B764C964D664DE64EF640165026510E1
:103790006519652065316541654C65586565656DE0
:1037A000657E658F65A565BD65C665CA65DD65E72E
:1037B00065F8650D6619661D6623663266366637DE
:1037C00066416647664E666166746687669666A55C
:1037D00066B466C666D866EA66FB66076714672144
:1037E0006732674467536762677167816785678976
:1037F000678D67906794679F67A767AC67BA67C96B
:1038000067D167E167E567F267FA6703680C6816D6
:103810006821682C6833683A684168536865687144
:10382000687868866894689E68AA68B468C068CA40
:1038300068D668E468F7680A691D6930693F694EAF
:10384000695D69706983699669A469B069BC69C872
:1038500069D269DF69EC69F969046A0C6A166A223F
:103860006A346A436A516A5F6A6D6A7B6A876A98DA
:103870006AA56AB66AC36AD46AE26AEE6AFC6A0A30
:103880006B1A6B2A6B376B456B556B5F6B696B7390
:103890006B7B6B866B916B9C6BA56BAE6BBE6BCEC3
:1038A0006BCF6BD86BE86BF86BF96B026C126C2208
:1038B0006C236C2C6C3C6C4C6C4D6C566C666C7652
:1038C0006C776C806C906CA06CA16CAA6CB86CC1AD
:1038D0006CD16CDA6CEA6CF36C036D0C6D1C6D25AD
:1038E0006D356D3E6D4E6D5B6D6F6D7B6D896D974A
:1038F0006DA56DB56DC46DD06DDC6DEA6DFA6D06AC
:103900006E0F6E1C6E2B6E396E456E4F6E5D6E6D5A
:103910006E7E6E8A6E946EA26EB36EBD6EC76ED5ED
:103920006EE36EEF6EFC6E096F126F166F216F31D2
:103930006F3E6F4C6F5B6F686F796F866F976FA389
:103940006FAE6FBE6FCF6FE06FF16F0070137024BA
:103950007030703D7045704E7055705C706370745F
:103960007080709270A570B970CC70DB70E370E5F8
:1039700070E670F47005710D711F71297132713D1F
:10398000714F715D716C7182719571AB71BA71CA51
:1039900071DA71EB71F6710172147221722972374A
:1039A000724C724D725C7265726C727D728D729720
:1039B000729E72AB72B072C172D272E872007309F9
:1039C000730D7320732A733B7350735C736073665B
:1039D00073747378737973837389739073A373B6F5
:1039E00073C973D873E773F67309741C742F74402A
:1039F000744C745A7468747B748D74A074B374C6F8
:103A000074D474D774DB74DF74E374E874F67401EF
:103A100075087519752875317547754B755875603A
:103A200075697573757D75887593759A75A175A897
:103A300075B875C875D275DB75EF7501760B76199B
:103A400076237631763B7649765A766D7680769314
:103A500076A676B876CA76DC76ED76FE760F771E99
:103A6000772D773C774B775877647770777C7786BC
:103A7000778F779A77A577B977CC77D877E477F08F
:103A800077FC7708781878257832783F784C785B1F
:103A9000786578767887789B78AC78BA78CA78D366
:103AA00078DD78E778F178F97804790F791A792355
:103AB0007933794379537954796479747984798540
:103AC000799579A579B579B679BF79CF79DF79E03C
:103AD00079E979F979097A0A7A137A237A337A3487
:103AE0007A3D7A4C7A557A657A6E7A7E7A877A97B9
:103AF0007AA07AB07AB97AC97AD27AE27AF77A0970
:103B00007B1C7B317B467B5B7B717B7F7B907B9CD3
:103B10007BA97BBA7BC67BCC7BD97BE77BF67B0121
:103B20007C0B7C197C297C3A7C477C517C617C72C3
:103B30007C7C7C867C947CA27CAE7CBB7CC87CD16B
:103B40007CD57CDE7CF17C007D077D1A7D277D3C69
:103B50007D497D5D7D697D747D847D957DA67DB784
:103B60007DC67DDA7DED7DFD7D0B7E137E1C7E2383
:103B70007E2A7E317E457E517E657E7D7E907EA34F
:103B80007EB67EBD7EBF7EC07ED37EE57EEE7EFFAE
:103B90007E0B7F147F247F367F487F5A7F707F851E
:103BA0007F9B7FAB7FBB7FCC7FD87FEB7FF87F0D88
:103BB000802080288039804B804C805D8066806DBD
:103BC000807D808C809880A780B580BC80CD80DE91
:103BD00080F4800C81158119812C81368147815CAC
:103BE0008168816C8172818081848185818F8195DA
:103BF000819C81AF81C281D581E781F9810B821CD3
:103C0000822D823E8250825C826982768289829B8A
:103C100082AE82C182D482E082E382E782EB82EECE
:103C200082F182FB820283088315832683318345D8
:103C3000834983588362836C8376837F838D839BE0
:103C400083A583AF83B983CD83E183EA83F9830EB0
:103C50008421842D843B844784558461846F8483CC
:103C6000849584A884BB84CE84E184F48407851D74
:103C7000853385498559856685738580858B859BC8
:103C800085AB85BB85C985D485E185EF85FF85102A
:103C9000861C862886348644865386648673867F8F
:103CA000868F86A186B486C086CC86D986E986F8BA
:103CB00086068714871E872C873A87488754876231
:103CC0008770877E878A879A87A987B887B987C9C7
:103CD00087D887E787E887F88707881688178820B6
:103CE000882F883E883F884888578866886788700C
:103CF000887F888E888F889888A888B188C188CA6C
:103D000088DA88E388F388FC880C89158925892E50
:103D1000893E894F896389778988899689A489B77B
:103D200089C889D789E389F489048A108A198A267F
:103D30008A338A478A598A638A738A878A9D8AABBB
:103D40008AB58AC58AD78AE18AEB8AF98A078B13F2
:103D50008B208B2D8B368B3A8B458B588B688B71D8
:103D60008B868B958BA78BB68BC98BD88BE48BF40A
:103D70008B058C168C278C368C4D8C618C728C87C5
:103D80008C8F8C988CA58CB28CBF8CD48CE28CF4EC
:103D90008C088D188D298D3B8D448D468D478D5710
:103DA0008D698D728D7D8D898D928DA18DB38DC420
:103DB0008DD58DEB8DFC8D128E208E308E448E4FE6
:103DC0008E648E788E8C8EA18EAA8EBD8ED18ED270
:103DD0008EE08EE98EF08E038F148F208F278F3424
:103DE0008F3B8F4C8F5D8F738F8B8F948F988FABA2
:103DF0008FB58FC68FDB8FE78FEB8FF18F0090042D
:103E00009005900F9015901C902F904290559068BF
:103E1000907B908E90A490BA90D090E290EE90FA21
:103E20009006911A912C913F9152916591719174E4
:103E30009178917C917F91829191919D91A291B184
:103E400091C191C991DE91E291F091F99102920DA7
:103E500092179222922C9233923A9241925192610D
:103E6000926B927392819291929C92AA92B592C314
:103E700092CE92DC92EB92FF921293259338934765
:103E8000935693659378938B939E93AC93B893C416
:103E900093D093DA93E693F293FE93089411941CD3
:103EA0009428943B944B94579463946F9483948F89
:103EB00094A094AF94BF94CC94D994E894F29406CF
:103EC0009519952F954395519562956B9575957FAD
:103ED00095899591959C95A795B295BB95CB95DFC6
:103EE00095E795E895F8950C9614961596259639CC
:103EF00096419642964B965F966796689671968520
:103F0000968D968E969796AB96B396B496BD96CCB4
:103F100096D596E596EE96FE9607971797209730DA
:103F2000973997499752976297769788979997AD5F
:103F300097C197D597EA97F9970B981798259837CF
:103F40009843984B985898659872987D9886989859
:103F500098A898B998C598CF98E198F198FB9805DA
:103F600099139921992D993A994799509954995FA4
:103F700099739983998A999C99A499B999C199D36C
:103F800099E399EE99FE990F9A209A319A419A599C
:103F90009A6C9A7D9A8F9A979AA09AA79AAE9AB598
:103FA0009AC89AD49AE99A009B129B279B389B3F08
:103FB0009B419B429B569B689B709B839B919B9ACA
:103FC0009BAC9BBE9BCF9BE09BF69B089C1E9C2DB5
:103FD0009C3D9C529C619C729C819C8E9C9F9CA74A
:103FE0009CBA9CCF9CD09CE29CEB9CF29C069D16BC
:103FF0009D299D309D3D9D449D559D669D7C9D9434
:104000009D9D9DA19DB49DBE9DCF9DE49DF09DF481
:104010009DFA9D089E0C9E0D9E179E1D9E249E3708
:104020009E4A9E5D9E6C9E7B9E8A9E9D9EB09EC378
:104030009ED59EE19EEE9EFB9E0E9F209F339F4647
:104040009F599F659F689F6B9F6F9F729F769F840C
:104050009F8C9F969FA49FB29FBD9FCA9FCE9FDCBF
:104060009FE59FEE9FF69F00A00AA017A021A02B1E
:10407000A035A045A055A060A068A077A08AA09513
:10408000A0A2A0ADA0BAA0C4A0D1A0E0A0F4A007B7
:10409000A11AA12DA13BA149A157A168A179A18A8B
:1040A000A195A1A1A1ADA1B9A1C3A1D1A1DFA1ED0C
:1040B000A1F9A103A20FA21CA22EA23EA24AA256BF
:1040C000A262A26EA279A28AA298A2A3A2B0A2BE64
:1040D000A2CFA2D9A2E6A2F5A207A314A320A32BE4
:1040E000A333A33DA347A351A359A363A36DA37710
:1040F000A37FA38FA39FA3AFA3B0A3C0A3D0A3E02C
:10410000A3E1A3F1A301A411A412A41BA42BA43B1B
:10411000A43CA445A455A465A466A46FA47FA48F61
:10412000A490A499A4A8A4B1A4C1A4CAA4DAA4E3A5
:10413000A4F3A4FCA40CA515A525A52EA53EA54A6F
:10414000A55DA56CA578A584A590A59BA5AEA5C0E9
:10415000A5CCA5D9A5EBA5F7A501A60EA61AA6275D
:10416000A632A63CA64AA65AA66BA677A681A68C1E
:10417000A69DA6A7A6B1A6BFA6CDA6D9A6E6A6F3DC
:10418000A6FCA600A70BA71BA727A72DA73CA74AFD
:10419000A75AA768A77AA789A794A7A4A7B5A7C66F
:1041A000A7D7A7E7A7F9A70BA818A82AA834A83D5E
:1041B000A846A850A857A86BA876A889A89BA8AC21
:1041C000A8BAA8C9A8D1A8D3A8D4A8E2A8F2A8F9E7
:1041D000A809A910A919A927A939A94BA95DA973EB
:1041E000A986A99CA9ABA9BAA9CCA9DBA9ECA9F578
:1041F000A909AA1BAA23AA32AA42AA43AA54AA5DC1
:10420000AA64AA77AA85AA8EAA97AAA6AAACAABDCA
:10421000AACEAAE4AAFCAA05AB09AB1CAB26AB3715
:10422000AB4CAB58AB5CAB62AB6FAB73AB74AB7E00
:10423000AB84AB8BAB9EABB1ABC4ABD2ABE0ABEE64
:10424000ABFFAB10AC21AC31AC3DAC4AAC57AC6869
:10425000AC7AAC8DACA0ACB3ACBFACC2ACC6ACCA93
:10426000ACCEACD2ACE0ACEBACF4AC04AD15AD1E56
:10427000AD2FAD33AD41AD4AAD55AD5EAD67AD755A
:10428000AD81AD8BAD95AD9FADADADBBADCAADD480
:10429000ADE7ADF9AD04AE12AE1DAE2BAE36AE44F9
:1042A000AE53AE66AE79AE8CAE9FAEB0AEC1AED2FE
:1042B000AEE6AEFAAE0EAF19AF27AF35AF43AF4F94
:1042C000AF5DAF6BAF79AF85AF8EAF99AFA6AFB92A
:1042D000AFCAAFDCAFEEAF00B012B01EB02FB03E31
:1042E000B04CB059B066B07BB085B095B0A4B0B753
:1042F000B0C5B0D3B0E1B0E8B0F2B0FCB006B10EDA
:10430000B11CB12AB138B144B154B162B170B171CC
:10431000B181B18FB19DB19EB1AEB1BCB1CAB1CBCB
:10432000B1D4B1E2B1F0B1F1B1FAB108B216B2173D
:10433000B220B22EB23CB23DB246B254B25DB26DC2
:10434000B276B286B28FB29FB2A8B2B8B2C1B2D1C1
:10435000B2DAB2EAB2F7B20BB319B327B335B3434B
:10436000B34FB35DB36DB379B385B395B3A1B3A9BF
:10437000B3B6B3C1B3CEB3D9B3E3B3F2B301B4119F
:10438000B41EB428B437B447B451B45BB469B4773D
:10439000B483B490B49DB4A6B4AAB4B5B4C5B4D132
:1043A000B4D8B4E8B4F6B409B517B528B539B544EE
:1043B000B554B566B578B58AB59AB5ABB5BCB5CBCD
:1043C000B5D8B5E3B5ECB5F6B500B60AB61FB62C50
:1043D000B63CB64DB65EB66FB680B688B68AB68BBA
:1043E000B69CB6ADB6B5B6C6B6D1B6DEB6EDB6FFBE
:1043F000B613B727B73DB74FB765B774B784B7954E
:10440000B7A2B7B5B7C4B7CFB7E4B7ECB7FEB7112B
:10441000B812B823B82CB833B83DB84CB85BB86301
:10442000B871B878B889B89AB8B0B8C8B8D1B8D5A2
:10443000B8E8B8F2B803B918B924B928B92EB93C0C
:10444000B940B941B94BB951B958B96BB97EB991B5
:10445000B9A2B9B3B9C4B9D8B9ECB900BA11BA1D87
:10446000BA2ABA37BA4BBA5DBA70BA83BA96BAA842
:10447000BAACBAB0BAB5BAB9BABCBAC6BACDBAD57E
:10448000BAE3BAF3BAFABA0DBB11BB1BBB22BB2B02
:10449000BB34BB3ABB45BB50BB57BB5EBB65BB73B4
:1044A000BB81BB8CBB95BBA6BBB5BBBEBBC7BBD0E2
:1044B000BBD9BBE2BBEBBBFCBB11BC25BC39BC4DC3
:1044C000BC5DBC6DBC7DBC90BCA3BCB6BCC7BCD243
:1044D000BCDDBCE8BCF1BCFDBC09BD15BD1FBD28E1
:1044E000BD33BD3EBD4FBD5FBD6BBD77BD83BD95CB
:1044F000BDA5BDB6BDC5BDD3BDDEBDEBBDFBBD0815
:10450000BE18BE28BE3ABE48BE57BE65BE6EBE7857
:10451000BE82BE8CBE94BE9FBEAABEB5BEBEBECE7F
:10452000BEDDBEECBEEDBEFDBE0CBF1BBF1CBF2C76
:10453000BF3BBF4ABF4BBF54BF63BF72BF73BF7C9B
:10454000BF8BBF9ABF9BBFA4BFB3BFC2BFC3BFCC0B
:10455000BFDEBFE7BFF7BF00C010C019C029C0321F
:10456000C042C04BC05BC064C074C085C09EC0A6C2
:10457000C0B6C0C6C0D6C0E5C0F6C007C113C122D0
:10458000C133C13FC148C155C162C16FC17AC18643
:10459000C193C1A3C1B4C1C0C1CAC1D9C1EAC1F4E8
:1045A000C1FEC10CC21AC226C233C240C249C24DAA
:1045B000C256C269C278C282C28FC29BC2ACC2B8A4
:1045C000C2C9C2D5C2E0C2F0C201C312C323C33301
:1045D000C343C357C366C375C37DC386C38DC3942A
:1045E000C39BC3AEC3BAC3CCC3DFC3F1C302C40E03
:1045F000C414C416C417C421C432C43EC450C45A1F
:10460000C463C471C483C492C4A1C4B7C4CAC4E09F
:10461000C4EFC401C514C524C52FC542C54EC55B32
:10462000C563C570C57EC57FC588C591C598C5AA37
:10463000C5BBC5CAC5D2C5E0C5E6C5F7C508C61E17
:10464000C636C63FC643C656C660C671C686C69243
:10465000C696C69CC6AEC6B2C6B3C6BDC6C3C6CA9B
:10466000C6DEC6F2C606C716C726C736C749C75C28
:10467000C76FC77FC78BC797C7A3C7B4C7C6C7D9FC
:10468000C7ECC7FFC70BC80FC813C818C81CC82081
:10469000C82EC839C83FC84DC85CC865C878C87C32
:1046A000C889C891C89BC8A4C8AFC8BAC8CFC8D762
:1046B000C8DFC8E7C8F4C801C912C91DC92DC93C63
:1046C000C946C957C961C972C97CC98DC99FC9B4D6
:1046D000C9C7C9DAC9EDC9FDC90DCA1DCA31CA4564
:1046E000CA59CA69CA7ACA8BCA9CCAADCABECACFDD
:1046F000CAE0CAF1CAFACA05CB14CB25CB35CB47E1
:10470000CB59CB6BCB7DCB89CB99CBA6CBB3CBC0D5
:10471000CBCDCBDCCBE6CBF5CB04CC12CC21CC3053
:10472000CC3ACC43CC4DCC57CC61CC69CC76CC8345
:10473000CC90CC9BCCABCCBECCD1CCD2CCE2CCF50B
:10474000CC08CD09CD19CD2CCD3FCD40CD49CD5C88
:10475000CD6FCD70CD79CD8CCD9FCDA0CDA9CDBC69
:10476000CDCFCDD0CDD9CDE8CDF1CD01CE0ACE1A69
:10477000CE23CE33CE3CCE4CCE55CE65CE6ECE7E45
:10478000CE8ECEA5CEB4CEC3CED2CEE1CEF1CE0368
:10479000CF17CF26CF37CF4BCF5ACF6CCF7DCF8C13
:1047A000CF9ECFB0CFC2CFD5CFE7CFF9CF07D015AF
:1047B000D023D031D03FD04DD05CD06BD07AD088D0
:1047C000D096D0A1D0A5D0AFD0BFD0CDD0D8D0EA90
:1047D000D0F7D00AD117D12AD137D141D151D162E6
:1047E000D173D184D194D1ABD1C2D1CFD1DCD1E6B8
:1047F000D1EFD1F8D101D20AD21ED22BD240D2555C
:10480000D265D276D286D28DD28FD293D29ED2AFBB
:10481000D2B9D2CAD2D4D2DDD2EDD2FFD210D31FB8
:10482000D335D349D35FD372D385D39BD3ADD3C113
:10483000D3D4D3E4D3FAD302D411D422D429D43597
:10484000D43ED445D457D469D479D47ED491D49766
:10485000D4A8D4B9D4CFD4E7D4F0D4F4D407D511A4
:10486000D522D537D543D547D54DD55DD561D56250
:10487000D56CD572D579D58CD59FD5B2D5C2D5D2C8
:10488000D5E2D5F6D50AD61ED62DD639D645D6517F
:10489000D662D674D688D69CD6AFD6C1D6C6D6CD6B
:1048A000D6D1D6D6D6DCD6E7D6EFD6F5D601D710F8
:1048B000D717D722D726D733D741D74AD752D75C75
:1048C000D770D781D78CD797D7A2D7B0D7BED7CB41
:1048D000D7D2D7E1D7EED7F9D70AD815D826D8310D
:1048E000D842D84BD85CD86BD87AD889D898D8A772
:1048F000D8B6D8C8D8DBD8EDD8FDD80CD91BD92A62
:10490000D937D946D955D964D971D97FD98BD9909E
:10491000D9A0D9B1D9BED9CBD9D8D9E8D9F7D90638
:10492000DA14DA23DA33DA43DA52DA5CDA69DA7A79
:10493000DA88DA94DAA0DAACDAB5DABFDAC9DAD32F
:10494000DADBDAF0DA06DB1ADB30DB40DB50DB6087
:10495000DB61DB71DB81DB91DB92DBA2DBB2DBC2F3
:10496000DBC3DBCCDBDCDBECDBEDDBF6DB06DC1618
:10497000DC17DC20DC30DC40DC41DC4ADC57DC606E
:10498000DC70DC79DC89DC92DCA2DCABDCBBDCC477
:10499000DCD4DCDDDCEDDCF6DC06DD12DD25DD382B
:1049A000DD4BDD58DD67DD77DD83DD8EDD9FDDAE40
:1049B000DDB4DDC1DDCDDDDEDDE9DDF2DD00DE1102
:1049C000DE23DE2FDE39DE46DE56DE60DE6ADE798D
:1049D000DE88DE94DEA0DEACDEB5DEB9DEC3DED579
:1049E000DEE2DEE8DEF8DE06DF1ADF28DF3CDF4845
:1049F000DF55DF65DF76DF87DF98DFA8DFB9DFCC43
:104A0000DFDADFE9DFF6DFFFDF06E00DE014E024A8
:104A1000E035E046E054E066E076E083E089E08B54
:104A2000E08CE09CE0AEE0B6E0C6E0D2E0DBE0ED9A
:104A3000E0FFE011E123E139E14CE162E172E18262
:104A4000E192E1A6E1BCE1D1E1DFE1F0E1FDE110BD
:104A5000E222E223E22FE238E23FE250E25FE26844
:104A6000E26EE27CE280E291E2A2E2B8E2D0E2D938
:104A7000E2DDE2F0E2FAE20BE320E32CE330E3369E
:104A8000E344E348E349E353E359E360E36FE37E40
:104A9000E38DE39EE3B1E3C5E3D9E3EDE302E41084
:104AA000E41CE428E434E44AE45CE46FE482E49542
:104AB000E4A2E4A9E4B1E4B5E4BBE4BEE4CAE4D210
:104AC000E4D9E4E7E4F7E401E510E514E51FE526A1
:104AD000E52FE539E548E553E55FE566E56DE57405
:104AE000E585E596E5A0E5AAE5BBE5CCE5D5E5E4F9
:104AF000E5EDE5FCE505E614E623E636E649E65C89
:104B0000E66FE67DE68BE699E6ACE6BFE6D2E6E345
:104B1000E6F1E6FFE60DE719E726E733E740E74B66
:104B2000E758E765E770E780E790E79EE7ACE7BA0C
:104B3000E7C8E7D3E7E4E7F2E701E810E81FE83168
:104B4000E83FE850E85EE86FE880E890E8A0E8AD6C
:104B5000E8B9E8C5E8D1E8DBE8E6E8F1E8FCE80513
:104B6000E915E92CE943E944E954E96BE982E98371
:104B7000E993E9AAE9C1E9C2E9CBE9E2E9F9E9FA8D
:104B8000E903EA1AEA31EA32EA3BEA52EA69EA6AF6
:104B9000EA73EA85EA8EEA9EEAA7EAB7EAC0EAD0B3
:104BA000EAD9EAE9EAF2EA02EB0BEB1BEB2EEB4562
:104BB000EB56EB67EB78EB89EB9AEBACEBC2EBD205
:104BC000EBE1EBF7EB07EC0FEC20EC2FEC3FEC4CC0
:104BD000EC5AEC68EC7BEC8FEC9CECA6ECB7ECC8E8
:104BE000ECD2ECDCECE8ECF4EC00ED0FED1EED2784
:104BF000ED2BED38ED4AED5CED66ED7AED85ED9847
:104C0000EDA3EDB2EDBEEDCAEDDAEDEBEDFCED0D91
:104C1000EE1DEE32EE49EE55EE63EE6DEE7BEE8468
:104C2000EE8DEE96EEA2EEADEEC1EED5EEE4EEF137
:104C3000EE02EF0BEF0DEF0EEF1BEF2CEF37EF490E
:104C4000EF53EF5CEF6CEF82EF97EFACEFC2EFD674
:104C5000EFECEFFCEF0EF01DF031F03DF050F05EA8
:104C6000F070F079F089F09FF0A0F0AEF0B7F0BEF0
:104C7000F0D4F0E7F0F3F0FEF00FF115F126F13784
:104C8000F150F168F171F175F188F192F1A3F1B889
:104C9000F1C4F1C8F1CEF1DFF1E3F1E4F1EEF1F4AA
:104CA000F1FBF10EF221F234F242F250F25EF272B6
:104CB000F286F29AF2A9F2B5F2C3F2D1F2E7F20368
:104CC000F31BF333F34BF34F6E004F6666004E2F2A
:104CD0004100596573004E6F005072696E74696EC1
:104CE000672E2E2E005072696E74696E67004964DB
:104CF0006C65004E6F2053442063617264002A2A61
:104D00002A2A204552524F52202A2A2A2A0042613A
:104D1000636B200100517569636B2073657474695E
:104D20006E677300256F6500436F6E666967757205
:104D30006174696F6E00506F736974696F6E0045BE
:104D40007874727564657200534420636172640004
:104D5000446562756767696E6700486F6D652064BA
:104D6000656C746100486F6D6520616C6C00486F04
:104D70006D65205800486F6D65205900486F6D655E
:104D8000205A005072656865617420504C41005093
:104D900072656865617420414253004C69676874AC
:104DA000733A256C6F00436F6F6C646F776E0053BE
:104DB000657420746F206F726967696E004469734F
:104DC00061626C6520737465707065720058207044
:104DD0006F736974696F6E005820706F732E206650
:104DE000617374005920706F736974696F6E005934
:104DF00020706F732E2066617374005A20706F7379
:104E00006974696F6E005A20706F732E206661732B
:104E10007400457874722E20706F736974696F6EB8
:104E2000004265642074656D703A2565622F2545E2
:104E30006202430054656D702E2031203A256530A2
:104E40002F25453002430054656D702E2032203AE4
:104E50002565312F25453102430054656D702E20A4
:104E600033203A2565322F254532024300547572AE
:104E70006E20657874722E2031206F66660054753E
:104E8000726E20657874722E2032206F6666005430
:104E900075726E20657874722E2033206F666600FE
:104EA0002558302053656C65637420657874722EC4
:104EB0002031002558312053656C65637420657876
:104EC00074722E2032002558322053656C6563744D
:104ED00020657874722E203300536574204F7269F8
:104EE00067696E005072696E7420583A25617800C7
:104EF0005072696E7420593A256179005072696E5A
:104F000074205A3A25617A005072696E743A2561AC
:104F10007A004D6F76652058203A256158004D6F14
:104F200076652059203A256159004D6F7665205AE3
:104F3000203A25615A004D6F76653A25615A004A3C
:104F400065726B2020203A25616A005A2D4A6572ED
:104F50006B203A25614A00416363656C6572617438
:104F6000696F6E0053746F726520746F20454550F1
:104F7000524F4D004C6F616420662E2045455052C3
:104F80004F4D004563686F2020203A25646F00492B
:104F90006E666F2020203A256469004572726F7238
:104FA00073203A256465004472792072756E3A2543
:104FB000646400254F30204F5053206F66660025F3
:104FC0004F31204F505320636C6173736963002528
:104FD0004F32204F505320666173740052657472D3
:104FE0006163742020203A254F72004261636B7325
:104FF0006C2E2020203A254F62004D696E2E646988
:10500000737420203A254F64004D6F7665206166E9
:105010007465723A254F6100416E7469206F6F7A32
:1050200065005072696E742066696C650050617528
:105030007365207072696E7400436F6E74696E756B
:1050400065207072696E7400556E6D6F756E742098
:1050500063617264004D6F756E74206361726400E9
:1050600044656C6574652066696C650046656564B9
:1050700072617465004D617820583A256678004D5C
:10508000617820593A256679004D6178205A3A2591
:10509000667A004D61783A25667A00486F6D652022
:1050A000583A25665800486F6D6520593A2566596B
:1050B00000486F6D65205A3A25665A00486F6D6545
:1050C0003A25665A00583A257830206D6D202564BF
:1050D00078256458004D696E20656E6473746F7036
:1050E0003A257378004D617820656E6473746F7033
:1050F0003A2573580000593A257831206D6D2025E6
:105100006479256459004D696E20656E6473746F0F
:10511000703A257379004D617820656E6473746F01
:10512000703A25735900005A3A257832206D6D2067
:1051300025647A25645A004D696E20656E64737427
:105140006F703A25737A004D617820656E647374D0
:105150006F703A25735A0000583A257830206D6DEB
:10516000004D696E20656E6473746F703A257378B4
:10517000004D617820656E6473746F703A257358C2
:105180000000593A257831206D6D004D696E20651B
:105190006E6473746F703A257379004D6178206581
:1051A0006E6473746F703A25735900005A3A25780B
:1051B00032206D6D004D696E20656E6473746F7082
:1051C0003A25737A004D617820656E6473746F7050
:1051D0003A25735A0000453A257833206D6D003129
:1051E00020636C69636B203D2031206D6D00583A5F
:1051F000257830206D6D004D696E3A257378204D0D
:1052000061783A25735800593A257831206D6D0040
:105210004D696E3A257379204D61783A25735900AE
:105220005A3A257832206D6D004D696E3A25737AB1
:10523000204D61783A25735A00583A257830206D10
:105240006D004D696E3A257378204D61783A25736B
:105250005800593A257831206D6D004D696E3A2518
:105260007379204D61783A257359005A3A2578327E
:10527000206D6D004D696E3A25737A204D61783A44
:1052800025735A0046616E2073706565640046613F
:105290006E2073706565643A254673252525005494
:1052A00075726E2066616E204F66660053657420CD
:1052B00066616E20323525252500536574206661B0
:1052C0006E203530252525005365742066616E20DB
:1052D0003735252525005365742066616E20667577
:1052E0006C6C005374657070657220696E616374D4
:1052F000697665004469732E2061667465723A2090
:10530000256973005B6D696E5D20303D4F666600F8
:105310004D61782E20696E61637469766500446919
:10532000732E2061667465723A20256970005B6D8A
:10533000696E5D20303D4F66660047656E6572613F
:105340006C0042617564726174653A256F63005345
:10535000746570732F4D4D3A255365005374617217
:10536000742046523A255866004D61782046523ADC
:1053700025584600416363656C3A255841005374D3
:1053800061622E54696D653A2558770041647661F3
:105390006E6365206C696E3A25586C0041647661D5
:1053A0006E636520717561643A25586100436F6EC4
:1053B00074726F6C3A2558680050494420503A2561
:1053C0005870004465616474696D653A25587000D1
:1053D000436F6E74726F6C2050574D3A25584D00D4
:1053E00050494420493A2558690050494420443ADC
:1053F000255864004472697665204D696E3A2558D7
:105400006D004472697665204D61783A25584D00EB
:10541000504944204D61783A25584400582D4F6634
:10542000667365743A25587800592D4F6666736522
:10543000743A2558790042616E6742616E67005088
:10544000494400416374696F6E3A256C6100486598
:105450006174696E6720657874727564657200485E
:10546000656174696E6720626564004B696C6C6588
:105470006400537465707065722064697361626C56
:10548000656400436F6E66696775726174696F6EFB
:105490000073746F72656420696E20454550524FE9
:1054A0004D00436F6E66696775726174696F6E0057
:1054B0006C6F6164656420662E20454550524F4DE7
:1054C0000055706C6F6164696E672E2E2E004275F8
:1054D000666665723A256F4200052565632F25458E
:1054E000630243207E256F430045313A2565302F06
:1054F00025453002437E256F300045323A2565311F
:105500002F25453102437E256F310045333A25650D
:10551000322F25453202437E256F32000725656212
:105520002F2545620243207E256F6200537065651A
:1055300064206D756C2E3A256F6D25252500466C0F
:105540006F77206D756C2E203A256F662525250016
:1055500053686F77206D6561732E005265736574B3
:10556000206D6561732E00536574205A3D30005ADA
:105570002063616C69622E005365742050310053C2
:105580006574205032005365742050330043616CC1
:1055900063756C617465206C6576656C696E670017
:1055A0004C6576656C2064656C7461005761697444
:1055B0002074656D702E2025585402430057616990
:1055C0007420726574722E3A255855206D6D005303
:1055D0004420636172642072656D6F766564005368
:1055E00044206361726420696E736572746564003F
:1055F0005072696E7465722072656164792E002044
:105600006461797320003A00005072696E74696EAB
:10561000672074696D650046696C616D656E742004
:105620007072696E746564007072696E746564008E
:1056300041545820706F776572206F6E2F6F6666C9
:1056400000446561642074696D6500536C6F774236
:10565000616E670053746F70205072696E74005AE7
:105660002062616279737465702E3A256F596D6D91
:10567000004368616E67652066696C616D656E7474
:10568000004368616E67652066696C616D656E7464
:1056900000507265737320552F44204B6579207438
:1056A0006F206D6F76650066696C616D656E742044
:1056B00075702F646F776E00507265737320456E3E
:1056C000746572207768656E20646F6E6500417541
:1056D000746F6C6576656C3A20256C6C005365724E
:1056E000766F20706F732E3A20256F530049676ED6
:1056F0006F7265204D31303620636D642025466918
:1057000000436C69636B20746F2072656865617417
:10571000006578747275646572732E0057616974E0
:1057200020666F72207461726765740074656D70B5
:105730006572617475726573202E2E2E0045787423
:105740007275646572206A616D005374616E646283
:10575000790042656420636F6174696E6700426519
:105760006420636F6174696E672073657420746F61
:1057700000004E6F20636F6174696E670042756947
:105780006C6454616B004B6170746F6E00426C7599
:105790006520706170657220746170650047726584
:1057A000656E20504554207461706500476C7565C6
:1057B00020737469636B00437573746F6D00437578
:1057C00073746F6D3A2542436D6D004C616E677561
:1057D000616765000A202565302F254530B02058C7
:1057E0003A257830000E202565622F254562B020CD
:1057F000593A25783100466C6F773AFD20256F665F
:105800002525252020205A3A257832004D756C3AFE
:1058100020256F6D25252520FD202020453A2025B7
:1058200078346D004275663A20256F4200256F730B
:1058300000052565632F25456302072565422F2551
:1058400045620200072565422F25456202005A3A4B
:105850002578322020427566203A20256F42004D7F
:10586000756C3A20256F6D202020466C6F773A20AA
:10587000256F6600583A25783020593A257831004E
:1058800025557400255566206D00255566206D2030
:105890007072696E74656400256F7300000525657C
:1058A000632F25456302000525656302002025421C
:1058B000436D6D0054656D702E2034203A2565339C
:1058C0002F25453302430054656D702E2035203A54
:1058D0002565342F25453402430054656D702E2014
:1058E00036203A2565352F2545350243005475721B
:1058F0006E20657874722E2034206F6666005475B1
:10590000726E20657874722E2035206F66660054A2
:1059100075726E20657874722E2036206F66660070
:105920002558332053656C65637420657874722E36
:105930002034002558342053656C656374206578E5
:1059400074722E2035002558352053656C656374BC
:1059500020657874722E203600254430204E6F204A
:10596000636F7069657300254431203120636F7067
:105970007900254432203220636F706965730025F9
:105980004433203320636F70696573005A2D707241
:105990006F6265206865696768743A257A680053A4
:1059A0006574207072696E74206F666673657473B7
:1059B000005365742058206F66667365743A2554E9
:1059C000306D6D005365742059206F666673657481
:1059D0003A2554316D6D00536574205A206F666608
:1059E0007365743A2554326D6D00456E6453746F5F
:1059F000703A25647000416E00417573006E760048
:105A00004A61004E65696E00447275636B652E2EA7
:105A10002E00447275636B656E004C6565726C6137
:105A20007566004B65696E65205344204B61727446
:105A300065002A2A2A2A204645484C4552202A2A0F
:105A40002A2A005A7572F5636B2001005363686E51
:105A5000656C6C65696E73742E00256F65004B6F05
:105A60006E66696775726174696F6E00506F7369F5
:105A700074696F6E00457874727564657200534482
:105A8000204B6172746500446562756767696E6773
:105A900000486F6D652044656C746100486F6D65EA
:105AA00020416C6C6500486F6D65205800486F6D33
:105AB00065205900486F6D65205A00566F72686501
:105AC000697A656E20504C4100566F726865697A3C
:105AD000656E20414253004C616D70656E3A202521
